{
    "contractName": "Displacement",
    "abi": [
        {
            "inputs": [
                {
                    "internalType": "address",
                    "name": "agent",
                    "type": "address"
                },
                {
                    "internalType": "address",
                    "name": "attacker",
                    "type": "address"
                }
            ],
            "stateMutability": "nonpayable",
            "type": "constructor"
        },
        {
            "inputs": [],
            "name": "AGENT",
            "outputs": [
                {
                    "internalType": "address",
                    "name": "",
                    "type": "address"
                }
            ],
            "stateMutability": "view",
            "type": "function"
        },
        {
            "inputs": [],
            "name": "ATTACKER",
            "outputs": [
                {
                    "internalType": "address",
                    "name": "",
                    "type": "address"
                }
            ],
            "stateMutability": "view",
            "type": "function"
        },
        {
            "inputs": [],
            "name": "receiveFunds",
            "outputs": [],
            "stateMutability": "payable",
            "type": "function"
        },
        {
            "inputs": [],
            "name": "withdraw",
            "outputs": [],
            "stateMutability": "nonpayable",
            "type": "function"
        }
    ],
    "bytecode": "60c060405234801561001057600080fd5b5060405161030d38038061030d83398101604081905261002f91610062565b6001600160a01b039182166080521660a052610095565b80516001600160a01b038116811461005d57600080fd5b919050565b6000806040838503121561007557600080fd5b61007e83610046565b915061008c60208401610046565b90509250929050565b60805160a0516102486100c56000396000818160bc015261011b015260008181606c015260e901526102486000f3fe60806040526004361061003e5760003560e01c80625c33e1146100435780633ccfd60b146100455780634f86473d1461005a578063a55a1503146100aa575b600080fd5b005b34801561005157600080fd5b506100436100de565b34801561006657600080fd5b5061008e7f000000000000000000000000000000000000000000000000000000000000000081565b6040516001600160a01b03909116815260200160405180910390f35b3480156100b657600080fd5b5061008e7f000000000000000000000000000000000000000000000000000000000000000081565b336001600160a01b037f000000000000000000000000000000000000000000000000000000000000000016148061013d5750336001600160a01b037f000000000000000000000000000000000000000000000000000000000000000016145b61019c5760405162461bcd60e51b815260206004820152602560248201527f4f6e6c79206167656e7420616e642061747461636b65722063616e20696e7465604482015264726163742160d81b60648201526084015b60405180910390fd5b47806101e15760405162461bcd60e51b81526020600482015260146024820152734e6f7468696e6720746f2077697468647261772160601b6044820152606401610193565b604051339082156108fc029083906000818181858888f1935050505015801561020e573d6000803e3d6000fd5b505056fea26469706673582212207eb40aa1881814be503932342063dd5a7c9ac64fa2a59801f7c57b23a8cc3f2b64736f6c634300080d0033",
    "sourcePath": "/mnt/z/code/blockchain/dissertation/backend/sol_files/displacement.sol",
    "compiler": {
        "name": "solc",
        "version": "0.8.13+commit.abaa5c0e"
    },
    "functionHashes": {
        "AGENT()": "4f86473d",
        "ATTACKER()": "a55a1503",
        "receiveFunds()": "005c33e1",
        "withdraw()": "3ccfd60b"
    },
    "gasEstimates": {
        "creation": {
            "codeDepositCost": "116800",
            "executionCost": "infinite",
            "totalCost": "infinite"
        },
        "external": {
            "AGENT()": "infinite",
            "ATTACKER()": "infinite",
            "receiveFunds()": "74",
            "withdraw()": "infinite"
        }
    }
}