{
    "contractName": "Sandwich",
    "abi": [
        {
            "inputs": [
                {
                    "internalType": "address",
                    "name": "agent",
                    "type": "address"
                },
                {
                    "internalType": "address",
                    "name": "attacker",
                    "type": "address"
                }
            ],
            "stateMutability": "nonpayable",
            "type": "constructor"
        },
        {
            "inputs": [],
            "name": "AGENT",
            "outputs": [
                {
                    "internalType": "address",
                    "name": "",
                    "type": "address"
                }
            ],
            "stateMutability": "view",
            "type": "function"
        },
        {
            "inputs": [],
            "name": "AGENT_TOKEN_BALANCE",
            "outputs": [
                {
                    "internalType": "uint256",
                    "name": "",
                    "type": "uint256"
                }
            ],
            "stateMutability": "view",
            "type": "function"
        },
        {
            "inputs": [],
            "name": "ATTACKER",
            "outputs": [
                {
                    "internalType": "address",
                    "name": "",
                    "type": "address"
                }
            ],
            "stateMutability": "view",
            "type": "function"
        },
        {
            "inputs": [],
            "name": "ATTACKER_TOKEN_BALANCE",
            "outputs": [
                {
                    "internalType": "uint256",
                    "name": "",
                    "type": "uint256"
                }
            ],
            "stateMutability": "view",
            "type": "function"
        },
        {
            "inputs": [],
            "name": "K_VAL",
            "outputs": [
                {
                    "internalType": "uint256",
                    "name": "",
                    "type": "uint256"
                }
            ],
            "stateMutability": "view",
            "type": "function"
        },
        {
            "inputs": [],
            "name": "POOL_TOKEN_BALANCE",
            "outputs": [
                {
                    "internalType": "uint256",
                    "name": "",
                    "type": "uint256"
                }
            ],
            "stateMutability": "view",
            "type": "function"
        },
        {
            "inputs": [],
            "name": "receiveFunds",
            "outputs": [],
            "stateMutability": "payable",
            "type": "function"
        },
        {
            "inputs": [],
            "name": "swapEthForTokens",
            "outputs": [],
            "stateMutability": "payable",
            "type": "function"
        },
        {
            "inputs": [],
            "name": "swapTokensForEth",
            "outputs": [],
            "stateMutability": "nonpayable",
            "type": "function"
        },
        {
            "inputs": [],
            "name": "withdraw",
            "outputs": [],
            "stateMutability": "nonpayable",
            "type": "function"
        }
    ],
    "bytecode": "60c06040526706f05b59d3b200006000556000600155600060025534801561002657600080fd5b506040516107ad3803806107ad83398101604081905261004591610078565b6001600160a01b039182166080521660a0526100ab565b80516001600160a01b038116811461007357600080fd5b919050565b6000806040838503121561008b57600080fd5b6100948361005c565b91506100a26020840161005c565b90509250929050565b60805160a05161069e61010f600039600081816101920152818161020b01528181610349015261043a01526000818161011a015281816101d90152818161025f0152818161031701528181610408015281816104f3015261056d015261069e6000f3fe6080604052600436106100905760003560e01c80634f86473d116100595780634f86473d146101085780636c974790146101545780638b87dbfd1461016a578063a55a150314610180578063b14e055e146101b457600080fd5b80625c33e11461009557806316b384f21461009f5780631f4e79d1146100c8578063396ecb49146100de5780633ccfd60b146100f3575b600080fd5b61009d6101bc565b005b3480156100ab57600080fd5b506100b560025481565b6040519081526020015b60405180910390f35b3480156100d457600080fd5b506100b560015481565b3480156100ea57600080fd5b5061009d6101ce565b3480156100ff57600080fd5b5061009d61030c565b34801561011457600080fd5b5061013c7f000000000000000000000000000000000000000000000000000000000000000081565b6040516001600160a01b0390911681526020016100bf565b34801561016057600080fd5b506100b560035481565b34801561017657600080fd5b506100b560005481565b34801561018c57600080fd5b5061013c7f000000000000000000000000000000000000000000000000000000000000000081565b61009d6103fd565b6000546101c990476105b3565b600355565b336001600160a01b037f000000000000000000000000000000000000000000000000000000000000000016148061022d5750336001600160a01b037f000000000000000000000000000000000000000000000000000000000000000016145b6102525760405162461bcd60e51b8152600401610249906105d2565b60405180910390fd5b6000336001600160a01b037f0000000000000000000000000000000000000000000000000000000000000000161461028c57600254610290565b6001545b9050600080544791906102bb906102b4906102ab9086610538565b6003549061054b565b8390610557565b6000549091506102cb9084610538565b60009081556102d990610563565b604051339082156108fc029083906000818181858888f19350505050158015610306573d6000803e3d6000fd5b50505050565b336001600160a01b037f000000000000000000000000000000000000000000000000000000000000000016148061036b5750336001600160a01b037f000000000000000000000000000000000000000000000000000000000000000016145b6103875760405162461bcd60e51b8152600401610249906105d2565b47806103cc5760405162461bcd60e51b81526020600482015260146024820152734e6f7468696e6720746f2077697468647261772160601b6044820152606401610249565b604051339082156108fc029083906000818181858888f193505050501580156103f9573d6000803e3d6000fd5b5050565b336001600160a01b037f000000000000000000000000000000000000000000000000000000000000000016148061045c5750336001600160a01b037f000000000000000000000000000000000000000000000000000000000000000016145b6104785760405162461bcd60e51b8152600401610249906105d2565b34806104b75760405162461bcd60e51b815260206004820152600e60248201526d4e6f2065746865722073656e742160901b6044820152606401610249565b4760006104d36104ca6102ab8585610538565b60005490610557565b6000549091506104e39082610557565b6000908155336001600160a01b037f0000000000000000000000000000000000000000000000000000000000000000161461052057600254610524565b6001545b90506103066105338284610538565b610563565b60006105448284610617565b9392505050565b6000610544828461062f565b60006105448284610651565b6001600160a01b037f000000000000000000000000000000000000000000000000000000000000000016330361059857600155565b600255565b634e487b7160e01b600052601160045260246000fd5b60008160001904831182151516156105cd576105cd61059d565b500290565b60208082526025908201527f4f6e6c79206167656e7420616e642061747461636b65722063616e20696e7465604082015264726163742160d81b606082015260800190565b6000821982111561062a5761062a61059d565b500190565b60008261064c57634e487b7160e01b600052601260045260246000fd5b500490565b6000828210156106635761066361059d565b50039056fea2646970667358221220d7203f18748938fcf6dee4057d58ae625c5d5091f1cf7ad2ac6c76ad29b1784c64736f6c634300080d0033",
    "sourcePath": "/mnt/z/code/blockchain/dissertation/backend/sol_files/sandwich.sol",
    "compiler": {
        "name": "solc",
        "version": "0.8.13+commit.abaa5c0e"
    },
    "functionHashes": {
        "AGENT()": "4f86473d",
        "AGENT_TOKEN_BALANCE()": "1f4e79d1",
        "ATTACKER()": "a55a1503",
        "ATTACKER_TOKEN_BALANCE()": "16b384f2",
        "K_VAL()": "6c974790",
        "POOL_TOKEN_BALANCE()": "8b87dbfd",
        "receiveFunds()": "005c33e1",
        "swapEthForTokens()": "b14e055e",
        "swapTokensForEth()": "396ecb49",
        "withdraw()": "3ccfd60b"
    },
    "gasEstimates": {
        "creation": {
            "codeDepositCost": "338800",
            "executionCost": "infinite",
            "totalCost": "infinite"
        },
        "external": {
            "AGENT()": "infinite",
            "AGENT_TOKEN_BALANCE()": "2329",
            "ATTACKER()": "infinite",
            "ATTACKER_TOKEN_BALANCE()": "2307",
            "K_VAL()": "2306",
            "POOL_TOKEN_BALANCE()": "2328",
            "receiveFunds()": "24421",
            "swapEthForTokens()": "infinite",
            "swapTokensForEth()": "infinite",
            "withdraw()": "infinite"
        },
        "internal": {
            "updateUserTokenBal(uint256)": "infinite"
        }
    }
}