{
    "contractName": "TestContract",
    "abi": [
        {
            "inputs": [],
            "stateMutability": "nonpayable",
            "type": "constructor"
        },
        {
            "inputs": [],
            "name": "DEPLOYER",
            "outputs": [
                {
                    "internalType": "address",
                    "name": "",
                    "type": "address"
                }
            ],
            "stateMutability": "view",
            "type": "function"
        },
        {
            "inputs": [],
            "name": "retrieve",
            "outputs": [
                {
                    "internalType": "uint256",
                    "name": "",
                    "type": "uint256"
                }
            ],
            "stateMutability": "view",
            "type": "function"
        },
        {
            "inputs": [
                {
                    "internalType": "uint256",
                    "name": "newVal",
                    "type": "uint256"
                }
            ],
            "name": "store",
            "outputs": [],
            "stateMutability": "nonpayable",
            "type": "function"
        }
    ],
    "bytecode": "60a06040526000805534801561001457600080fd5b503360805260805161014a61003360003960006076015261014a6000f3fe608060405234801561001057600080fd5b50600436106100415760003560e01c80632e64cec1146100465780636057361d1461005c578063c1b8411a14610071575b600080fd5b6000546040519081526020015b60405180910390f35b61006f61006a3660046100fb565b6100b0565b005b6100987f000000000000000000000000000000000000000000000000000000000000000081565b6040516001600160a01b039091168152602001610053565b806103e7036100f65760405162461bcd60e51b815260206004820152600e60248201526d43616e6e6f74206265203939392160901b604482015260640160405180910390fd5b600055565b60006020828403121561010d57600080fd5b503591905056fea26469706673582212205340429a4491e59e843e6e5f0a77916d43e4b46b36a9cd18796d3d9e175aa73d64736f6c634300080d0033",
    "sourcePath": "/mnt/z/code/blockchain/dissertation/backend/sol_files/contract_test.sol",
    "compiler": {
        "name": "solc",
        "version": "0.8.13+commit.abaa5c0e"
    },
    "functionHashes": {
        "DEPLOYER()": "c1b8411a",
        "retrieve()": "2e64cec1",
        "store(uint256)": "6057361d"
    },
    "gasEstimates": {
        "creation": {
            "codeDepositCost": "66000",
            "executionCost": "infinite",
            "totalCost": "infinite"
        },
        "external": {
            "DEPLOYER()": "infinite",
            "retrieve()": "2247",
            "store(uint256)": "22347"
        }
    }
}